{
  "_format": "hh-sol-artifact-1",
  "contractName": "Kotaru",
  "sourceName": "contracts/Kotaru.sol",
  "abi": [
    {
      "anonymous": false,
      "inputs": [
        {
          "indexed": false,
          "internalType": "uint256",
          "name": "id",
          "type": "uint256"
        },
        {
          "indexed": false,
          "internalType": "string",
          "name": "name",
          "type": "string"
        },
        {
          "indexed": false,
          "internalType": "string",
          "name": "ipfs_hash",
          "type": "string"
        },
        {
          "indexed": false,
          "internalType": "uint256",
          "name": "price",
          "type": "uint256"
        },
        {
          "indexed": false,
          "internalType": "address payable",
          "name": "publisher",
          "type": "address"
        }
      ],
      "name": "ObjectPublished",
      "type": "event"
    },
    {
      "inputs": [],
      "name": "name",
      "outputs": [
        {
          "internalType": "string",
          "name": "",
          "type": "string"
        }
      ],
      "stateMutability": "view",
      "type": "function"
    },
    {
      "inputs": [],
      "name": "objectCount",
      "outputs": [
        {
          "internalType": "uint256",
          "name": "",
          "type": "uint256"
        }
      ],
      "stateMutability": "view",
      "type": "function"
    },
    {
      "inputs": [
        {
          "internalType": "uint256",
          "name": "",
          "type": "uint256"
        }
      ],
      "name": "objects",
      "outputs": [
        {
          "internalType": "uint256",
          "name": "id",
          "type": "uint256"
        },
        {
          "internalType": "string",
          "name": "name",
          "type": "string"
        },
        {
          "internalType": "string",
          "name": "ipfs_hash",
          "type": "string"
        },
        {
          "internalType": "uint256",
          "name": "price",
          "type": "uint256"
        },
        {
          "internalType": "address payable",
          "name": "publisher",
          "type": "address"
        }
      ],
      "stateMutability": "view",
      "type": "function"
    },
    {
      "inputs": [
        {
          "internalType": "string",
          "name": "_name",
          "type": "string"
        },
        {
          "internalType": "string",
          "name": "_ipfs_hash",
          "type": "string"
        },
        {
          "internalType": "uint256",
          "name": "_price",
          "type": "uint256"
        }
      ],
      "name": "publishObject",
      "outputs": [],
      "stateMutability": "nonpayable",
      "type": "function"
    }
  ],
  "bytecode": "0x60806040526040518060400160405280600681526020017f4b6f7461727500000000000000000000000000000000000000000000000000008152506000908051906020019061004f929190610067565b50600060015534801561006157600080fd5b5061016b565b8280546100739061010a565b90600052602060002090601f01602090048101928261009557600085556100dc565b82601f106100ae57805160ff19168380011785556100dc565b828001600101855582156100dc579182015b828111156100db5782518255916020019190600101906100c0565b5b5090506100e991906100ed565b5090565b5b808211156101065760008160009055506001016100ee565b5090565b6000600282049050600182168061012257607f821691505b602082108114156101365761013561013c565b5b50919050565b7f4e487b7100000000000000000000000000000000000000000000000000000000600052602260045260246000fd5b61099b8061017a6000396000f3fe608060405234801561001057600080fd5b506004361061004c5760003560e01c806306fdde031461005157806341ea5af61461006f57806396c5892c1461008b578063ed175850146100a9575b600080fd5b6100596100dd565b604051610066919061069c565b60405180910390f35b6100896004803603810190610084919061059d565b61016b565b005b610093610311565b6040516100a091906106be565b60405180910390f35b6100c360048036038101906100be919061061c565b610317565b6040516100d49594939291906106d9565b60405180910390f35b600080546100ea90610835565b80601f016020809104026020016040519081016040528092919081815260200182805461011690610835565b80156101635780601f1061013857610100808354040283529160200191610163565b820191906000526020600020905b81548152906001019060200180831161014657829003601f168201915b505050505081565b600083511161017957600080fd5b600082511161018757600080fd5b600073ffffffffffffffffffffffffffffffffffffffff163373ffffffffffffffffffffffffffffffffffffffff1614156101c157600080fd5b600160008154809291906101d490610867565b919050555060003390506040518060a0016040528060015481526020018581526020018481526020018381526020018273ffffffffffffffffffffffffffffffffffffffff1681525060026000600154815260200190815260200160002060008201518160000155602082015181600101908051906020019061025892919061047d565b50604082015181600201908051906020019061027592919061047d565b506060820151816003015560808201518160040160006101000a81548173ffffffffffffffffffffffffffffffffffffffff021916908373ffffffffffffffffffffffffffffffffffffffff1602179055509050507fd20843131c1df3a220232c7e295e1383f0b8bc2dfbf219da8c14b6bd01f4876f600154858585856040516103039594939291906106d9565b60405180910390a150505050565b60015481565b600260205280600052604060002060009150905080600001549080600101805461034090610835565b80601f016020809104026020016040519081016040528092919081815260200182805461036c90610835565b80156103b95780601f1061038e576101008083540402835291602001916103b9565b820191906000526020600020905b81548152906001019060200180831161039c57829003601f168201915b5050505050908060020180546103ce90610835565b80601f01602080910402602001604051908101604052809291908181526020018280546103fa90610835565b80156104475780601f1061041c57610100808354040283529160200191610447565b820191906000526020600020905b81548152906001019060200180831161042a57829003601f168201915b5050505050908060030154908060040160009054906101000a900473ffffffffffffffffffffffffffffffffffffffff16905085565b82805461048990610835565b90600052602060002090601f0160209004810192826104ab57600085556104f2565b82601f106104c457805160ff19168380011785556104f2565b828001600101855582156104f2579182015b828111156104f15782518255916020019190600101906104d6565b5b5090506104ff9190610503565b5090565b5b8082111561051c576000816000905550600101610504565b5090565b600061053361052e8461076b565b61073a565b90508281526020810184848401111561054b57600080fd5b6105568482856107f3565b509392505050565b600082601f83011261056f57600080fd5b813561057f848260208601610520565b91505092915050565b6000813590506105978161094e565b92915050565b6000806000606084860312156105b257600080fd5b600084013567ffffffffffffffff8111156105cc57600080fd5b6105d88682870161055e565b935050602084013567ffffffffffffffff8111156105f557600080fd5b6106018682870161055e565b925050604061061286828701610588565b9150509250925092565b60006020828403121561062e57600080fd5b600061063c84828501610588565b91505092915050565b61064e816107b7565b82525050565b600061065f8261079b565b61066981856107a6565b9350610679818560208601610802565b6106828161093d565b840191505092915050565b610696816107e9565b82525050565b600060208201905081810360008301526106b68184610654565b905092915050565b60006020820190506106d3600083018461068d565b92915050565b600060a0820190506106ee600083018861068d565b81810360208301526107008187610654565b905081810360408301526107148186610654565b9050610723606083018561068d565b6107306080830184610645565b9695505050505050565b6000604051905081810181811067ffffffffffffffff821117156107615761076061090e565b5b8060405250919050565b600067ffffffffffffffff8211156107865761078561090e565b5b601f19601f8301169050602081019050919050565b600081519050919050565b600082825260208201905092915050565b60006107c2826107c9565b9050919050565b600073ffffffffffffffffffffffffffffffffffffffff82169050919050565b6000819050919050565b82818337600083830152505050565b60005b83811015610820578082015181840152602081019050610805565b8381111561082f576000848401525b50505050565b6000600282049050600182168061084d57607f821691505b60208210811415610861576108606108df565b5b50919050565b6000610872826107e9565b91507fffffffffffffffffffffffffffffffffffffffffffffffffffffffffffffffff8214156108a5576108a46108b0565b5b600182019050919050565b7f4e487b7100000000000000000000000000000000000000000000000000000000600052601160045260246000fd5b7f4e487b7100000000000000000000000000000000000000000000000000000000600052602260045260246000fd5b7f4e487b7100000000000000000000000000000000000000000000000000000000600052604160045260246000fd5b6000601f19601f8301169050919050565b610957816107e9565b811461096257600080fd5b5056fea26469706673582212204b271161931b2207278df4f03a93376b43e021935cebbf236576b5f9424b825264736f6c63430008000033",
  "linkReferences": {},
  "deployedLinkReferences": {}
}