{
  "_format": "hh-sol-artifact-1",
  "contractName": "Kotaru",
  "sourceName": "contracts/Kotaru.sol",
  "abi": [
    {
      "anonymous": false,
      "inputs": [
        {
          "indexed": false,
          "internalType": "uint256",
          "name": "id",
          "type": "uint256"
        },
        {
          "indexed": false,
          "internalType": "uint256",
          "name": "object_id",
          "type": "uint256"
        },
        {
          "indexed": false,
          "internalType": "address",
          "name": "buyer",
          "type": "address"
        }
      ],
      "name": "ObjektBought",
      "type": "event"
    },
    {
      "anonymous": false,
      "inputs": [
        {
          "indexed": false,
          "internalType": "uint256",
          "name": "id",
          "type": "uint256"
        },
        {
          "indexed": false,
          "internalType": "string",
          "name": "name",
          "type": "string"
        },
        {
          "indexed": false,
          "internalType": "string",
          "name": "ipfs_hash",
          "type": "string"
        },
        {
          "indexed": false,
          "internalType": "uint256",
          "name": "price",
          "type": "uint256"
        },
        {
          "indexed": false,
          "internalType": "uint256",
          "name": "downloads",
          "type": "uint256"
        },
        {
          "indexed": false,
          "internalType": "address payable",
          "name": "publisher",
          "type": "address"
        }
      ],
      "name": "ObjektPublished",
      "type": "event"
    },
    {
      "inputs": [
        {
          "internalType": "uint256",
          "name": "_id",
          "type": "uint256"
        }
      ],
      "name": "buyObjekt",
      "outputs": [],
      "stateMutability": "payable",
      "type": "function"
    },
    {
      "inputs": [
        {
          "internalType": "uint256",
          "name": "",
          "type": "uint256"
        }
      ],
      "name": "downloads",
      "outputs": [
        {
          "internalType": "uint256",
          "name": "id",
          "type": "uint256"
        },
        {
          "internalType": "uint256",
          "name": "objekt_id",
          "type": "uint256"
        },
        {
          "internalType": "address",
          "name": "buyer",
          "type": "address"
        }
      ],
      "stateMutability": "view",
      "type": "function"
    },
    {
      "inputs": [],
      "name": "name",
      "outputs": [
        {
          "internalType": "string",
          "name": "",
          "type": "string"
        }
      ],
      "stateMutability": "view",
      "type": "function"
    },
    {
      "inputs": [],
      "name": "objektCount",
      "outputs": [
        {
          "internalType": "uint256",
          "name": "",
          "type": "uint256"
        }
      ],
      "stateMutability": "view",
      "type": "function"
    },
    {
      "inputs": [
        {
          "internalType": "uint256",
          "name": "",
          "type": "uint256"
        }
      ],
      "name": "objekts",
      "outputs": [
        {
          "internalType": "uint256",
          "name": "id",
          "type": "uint256"
        },
        {
          "internalType": "string",
          "name": "name",
          "type": "string"
        },
        {
          "internalType": "string",
          "name": "ipfs_uri",
          "type": "string"
        },
        {
          "internalType": "uint256",
          "name": "price",
          "type": "uint256"
        },
        {
          "internalType": "uint256",
          "name": "downloads",
          "type": "uint256"
        },
        {
          "internalType": "address payable",
          "name": "publisher",
          "type": "address"
        }
      ],
      "stateMutability": "view",
      "type": "function"
    },
    {
      "inputs": [
        {
          "internalType": "string",
          "name": "_name",
          "type": "string"
        },
        {
          "internalType": "string",
          "name": "_ipfs_hash",
          "type": "string"
        },
        {
          "internalType": "uint256",
          "name": "_price",
          "type": "uint256"
        }
      ],
      "name": "publishObjekt",
      "outputs": [],
      "stateMutability": "nonpayable",
      "type": "function"
    },
    {
      "inputs": [],
      "name": "totalDownloads",
      "outputs": [
        {
          "internalType": "uint256",
          "name": "",
          "type": "uint256"
        }
      ],
      "stateMutability": "view",
      "type": "function"
    }
  ],
  "bytecode": "0x60806040526040518060400160405280600681526020017f4b6f746172750000000000000000000000000000000000000000000000000000815250600090805190602001906200005192919062000070565b50600060015560006002553480156200006957600080fd5b5062000185565b8280546200007e9062000120565b90600052602060002090601f016020900481019282620000a25760008555620000ee565b82601f10620000bd57805160ff1916838001178555620000ee565b82800160010185558215620000ee579182015b82811115620000ed578251825591602001919060010190620000d0565b5b509050620000fd919062000101565b5090565b5b808211156200011c57600081600090555060010162000102565b5090565b600060028204905060018216806200013957607f821691505b6020821081141562000150576200014f62000156565b5b50919050565b7f4e487b7100000000000000000000000000000000000000000000000000000000600052602260045260246000fd5b610fa680620001956000396000f3fe6080604052600436106100705760003560e01c8063693823a31161004e578063693823a31461010d57806399f966b4146101295780639fd50b2d14610154578063d4a805a41461019357610070565b806306fdde031461007557806344c62d9f146100a057806345f86dd4146100cb575b600080fd5b34801561008157600080fd5b5061008a6101bc565b6040516100979190610bfa565b60405180910390f35b3480156100ac57600080fd5b506100b561024a565b6040516100c29190610c1c565b60405180910390f35b3480156100d757600080fd5b506100f260048036038101906100ed9190610b6b565b610250565b60405161010496959493929190610c37565b60405180910390f35b61012760048036038101906101229190610b6b565b6103bc565b005b34801561013557600080fd5b5061013e6107c1565b60405161014b9190610c1c565b60405180910390f35b34801561016057600080fd5b5061017b60048036038101906101769190610b6b565b6107c7565b60405161018a93929190610ca6565b60405180910390f35b34801561019f57600080fd5b506101ba60048036038101906101b59190610aec565b610811565b005b600080546101c990610e40565b80601f01602080910402602001604051908101604052809291908181526020018280546101f590610e40565b80156102425780601f1061021757610100808354040283529160200191610242565b820191906000526020600020905b81548152906001019060200180831161022557829003601f168201915b505050505081565b60025481565b600360205280600052604060002060009150905080600001549080600101805461027990610e40565b80601f01602080910402602001604051908101604052809291908181526020018280546102a590610e40565b80156102f25780601f106102c7576101008083540402835291602001916102f2565b820191906000526020600020905b8154815290600101906020018083116102d557829003601f168201915b50505050509080600201805461030790610e40565b80601f016020809104026020016040519081016040528092919081815260200182805461033390610e40565b80156103805780601f1061035557610100808354040283529160200191610380565b820191906000526020600020905b81548152906001019060200180831161036357829003601f168201915b5050505050908060030154908060040154908060050160009054906101000a900473ffffffffffffffffffffffffffffffffffffffff16905086565b6001548111156103cb57600080fd5b600260008154809291906103de90610e72565b91905055506000600360008381526020019081526020016000206040518060c00160405290816000820154815260200160018201805461041d90610e40565b80601f016020809104026020016040519081016040528092919081815260200182805461044990610e40565b80156104965780601f1061046b57610100808354040283529160200191610496565b820191906000526020600020905b81548152906001019060200180831161047957829003601f168201915b505050505081526020016002820180546104af90610e40565b80601f01602080910402602001604051908101604052809291908181526020018280546104db90610e40565b80156105285780601f106104fd57610100808354040283529160200191610528565b820191906000526020600020905b81548152906001019060200180831161050b57829003601f168201915b5050505050815260200160038201548152602001600482015481526020016005820160009054906101000a900473ffffffffffffffffffffffffffffffffffffffff1673ffffffffffffffffffffffffffffffffffffffff1673ffffffffffffffffffffffffffffffffffffffff1681525050905060008160a00151905060003390506000836060015190508034146105c057600080fd5b8273ffffffffffffffffffffffffffffffffffffffff166108fc349081150290604051600060405180830381858888f19350505050158015610606573d6000803e3d6000fd5b50600184608001516106189190610d5a565b846080018181525050836003600087815260200190815260200160002060008201518160000155602082015181600101908051906020019061065b9291906109cc565b5060408201518160020190805190602001906106789291906109cc565b50606082015181600301556080820151816004015560a08201518160050160006101000a81548173ffffffffffffffffffffffffffffffffffffffff021916908373ffffffffffffffffffffffffffffffffffffffff160217905550905050604051806060016040528060025481526020018681526020018373ffffffffffffffffffffffffffffffffffffffff16815250600460006002548152602001908152602001600020600082015181600001556020820151816001015560408201518160020160006101000a81548173ffffffffffffffffffffffffffffffffffffffff021916908373ffffffffffffffffffffffffffffffffffffffff1602179055509050507f6566a832c86c07d17cee68967523c3849f4632392a6bcc596eed216afeeea84260025486336040516107b293929190610ca6565b60405180910390a15050505050565b60015481565b60046020528060005260406000206000915090508060000154908060010154908060020160009054906101000a900473ffffffffffffffffffffffffffffffffffffffff16905083565b600083511161081f57600080fd5b600082511161082d57600080fd5b600073ffffffffffffffffffffffffffffffffffffffff163373ffffffffffffffffffffffffffffffffffffffff16141561086757600080fd5b6001600081548092919061087a90610e72565b9190505550600033905060006040518060c0016040528060015481526020018681526020018581526020018481526020018281526020018373ffffffffffffffffffffffffffffffffffffffff168152506003600060015481526020019081526020016000206000820151816000015560208201518160010190805190602001906109069291906109cc565b5060408201518160020190805190602001906109239291906109cc565b50606082015181600301556080820151816004015560a08201518160050160006101000a81548173ffffffffffffffffffffffffffffffffffffffff021916908373ffffffffffffffffffffffffffffffffffffffff1602179055509050507fd5bd664971b8e8cb88bbe57a4a9e071c807a0269f88299c7d91873789668e4f660015486868685876040516109bd96959493929190610c37565b60405180910390a15050505050565b8280546109d890610e40565b90600052602060002090601f0160209004810192826109fa5760008555610a41565b82601f10610a1357805160ff1916838001178555610a41565b82800160010185558215610a41579182015b82811115610a40578251825591602001919060010190610a25565b5b509050610a4e9190610a52565b5090565b5b80821115610a6b576000816000905550600101610a53565b5090565b6000610a82610a7d84610d0e565b610cdd565b905082815260208101848484011115610a9a57600080fd5b610aa5848285610dfe565b509392505050565b600082601f830112610abe57600080fd5b8135610ace848260208601610a6f565b91505092915050565b600081359050610ae681610f59565b92915050565b600080600060608486031215610b0157600080fd5b600084013567ffffffffffffffff811115610b1b57600080fd5b610b2786828701610aad565b935050602084013567ffffffffffffffff811115610b4457600080fd5b610b5086828701610aad565b9250506040610b6186828701610ad7565b9150509250925092565b600060208284031215610b7d57600080fd5b6000610b8b84828501610ad7565b91505092915050565b610b9d81610dc2565b82525050565b610bac81610db0565b82525050565b6000610bbd82610d3e565b610bc78185610d49565b9350610bd7818560208601610e0d565b610be081610f48565b840191505092915050565b610bf481610df4565b82525050565b60006020820190508181036000830152610c148184610bb2565b905092915050565b6000602082019050610c316000830184610beb565b92915050565b600060c082019050610c4c6000830189610beb565b8181036020830152610c5e8188610bb2565b90508181036040830152610c728187610bb2565b9050610c816060830186610beb565b610c8e6080830185610beb565b610c9b60a0830184610b94565b979650505050505050565b6000606082019050610cbb6000830186610beb565b610cc86020830185610beb565b610cd56040830184610ba3565b949350505050565b6000604051905081810181811067ffffffffffffffff82111715610d0457610d03610f19565b5b8060405250919050565b600067ffffffffffffffff821115610d2957610d28610f19565b5b601f19601f8301169050602081019050919050565b600081519050919050565b600082825260208201905092915050565b6000610d6582610df4565b9150610d7083610df4565b9250827fffffffffffffffffffffffffffffffffffffffffffffffffffffffffffffffff03821115610da557610da4610ebb565b5b828201905092915050565b6000610dbb82610dd4565b9050919050565b6000610dcd82610dd4565b9050919050565b600073ffffffffffffffffffffffffffffffffffffffff82169050919050565b6000819050919050565b82818337600083830152505050565b60005b83811015610e2b578082015181840152602081019050610e10565b83811115610e3a576000848401525b50505050565b60006002820490506001821680610e5857607f821691505b60208210811415610e6c57610e6b610eea565b5b50919050565b6000610e7d82610df4565b91507fffffffffffffffffffffffffffffffffffffffffffffffffffffffffffffffff821415610eb057610eaf610ebb565b5b600182019050919050565b7f4e487b7100000000000000000000000000000000000000000000000000000000600052601160045260246000fd5b7f4e487b7100000000000000000000000000000000000000000000000000000000600052602260045260246000fd5b7f4e487b7100000000000000000000000000000000000000000000000000000000600052604160045260246000fd5b6000601f19601f8301169050919050565b610f6281610df4565b8114610f6d57600080fd5b5056fea2646970667358221220e6be99eb58396ac6541c36f8296017c408d6a03761b4ce7b40b2c0dcb6035e6564736f6c63430008000033",
  "linkReferences": {},
  "deployedLinkReferences": {}
}